{
  "abi": [
    {
      "inputs": [
        {
          "internalType": "address",
          "name": "",
          "type": "address"
        },
        {
          "internalType": "bytes",
          "name": "",
          "type": "bytes"
        }
      ],
      "name": "PeekerReverted",
      "type": "error"
    },
    {
      "inputs": [
        {
          "internalType": "address",
          "name": "target",
          "type": "address"
        },
        {
          "internalType": "uint256",
          "name": "expected",
          "type": "uint256"
        }
      ],
      "name": "callTarget",
      "outputs": [],
      "stateMutability": "view",
      "type": "function"
    },
    {
      "inputs": [
        {
          "internalType": "string",
          "name": "location",
          "type": "string"
        }
      ],
      "name": "example",
      "outputs": [],
      "stateMutability": "nonpayable",
      "type": "function"
    }
  ],
  "bytecode": {
    "object": "0x608060405234801561001057600080fd5b50610595806100206000396000f3fe608060405234801561001057600080fd5b50600436106100365760003560e01c806348bce0641461003b578063bd1c915714610050575b600080fd5b61004e610049366004610337565b610063565b005b61004e61005e36600461036f565b6100d0565b6040805160048152602481019091526020810180516001600160e01b0316631b53398f60e21b17905260009061009a908490610114565b90506000818060200190518101906100b291906103e1565b67ffffffffffffffff1690508281146100ca57600080fd5b50505050565b61010f82828080601f0160208091040260200160405190810160405280939291908181526020018383808284376000920191909152506101e592505050565b505050565b606060008063421000036001600160a01b0316858560405160200161013a929190610462565b60408051601f198184030181529082905261015491610486565b600060405180830381855afa9150503d806000811461018f576040519150601f19603f3d011682016040523d82523d6000602084013e610194565b606091505b5091509150816101c8576342100003816040516375fff46760e01b81526004016101bf929190610462565b60405180910390fd5b808060200190518101906101dc919061052c565b95945050505050565b60606101ef6102b7565b6101f857600080fd5b6000806144446001600160a01b0316846040516020016102189190610575565b60408051601f198184030181529082905261023291610486565b600060405180830381855afa9150503d806000811461026d576040519150601f19603f3d011682016040523d82523d6000602084013e610272565b606091505b50915091508161029b57614444816040516375fff46760e01b81526004016101bf929190610462565b808060200190518101906102af919061052c565b949350505050565b6040516000908190819063420100009082818181855afa9150503d80600081146102fd576040519150601f19603f3d011682016040523d82523d6000602084013e610302565b606091505b50915091508161032d576342010000816040516375fff46760e01b81526004016101bf929190610462565b6020015192915050565b6000806040838503121561034a57600080fd5b82356001600160a01b038116811461036157600080fd5b946020939093013593505050565b6000806020838503121561038257600080fd5b823567ffffffffffffffff8082111561039a57600080fd5b818501915085601f8301126103ae57600080fd5b8135818111156103bd57600080fd5b8660208285010111156103cf57600080fd5b60209290920196919550909350505050565b6000602082840312156103f357600080fd5b815167ffffffffffffffff8116811461040b57600080fd5b9392505050565b60005b8381101561042d578181015183820152602001610415565b50506000910152565b6000815180845261044e816020860160208601610412565b601f01601f19169290920160200192915050565b6001600160a01b03831681526040602082018190526000906102af90830184610436565b60008251610498818460208701610412565b9190910192915050565b634e487b7160e01b600052604160045260246000fd5b600067ffffffffffffffff808411156104d3576104d36104a2565b604051601f8501601f19908116603f011681019082821181831017156104fb576104fb6104a2565b8160405280935085815286868601111561051457600080fd5b610522866020830187610412565b5050509392505050565b60006020828403121561053e57600080fd5b815167ffffffffffffffff81111561055557600080fd5b8201601f8101841361056657600080fd5b6102af848251602084016104b8565b60208152600061040b602083018461043656fea164736f6c6343000813000a"
  }
}