{
  "abi": [
    {
      "inputs": [
        {
          "internalType": "address",
          "name": "",
          "type": "address"
        },
        {
          "internalType": "bytes",
          "name": "",
          "type": "bytes"
        }
      ],
      "name": "PeekerReverted",
      "type": "error"
    },
    {
      "inputs": [
        {
          "internalType": "uint64",
          "name": "earth",
          "type": "uint64"
        }
      ],
      "name": "createClaim",
      "outputs": [],
      "stateMutability": "nonpayable",
      "type": "function"
    },
    {
      "inputs": [
        {
          "internalType": "string",
          "name": "location",
          "type": "string"
        }
      ],
      "name": "settle",
      "outputs": [],
      "stateMutability": "nonpayable",
      "type": "function"
    }
  ],
  "bytecode": {
    "object": "0x608060405234801561001057600080fd5b50610411806100206000396000f3fe608060405234801561001057600080fd5b50600436106100365760003560e01c8063ae620cc41461003b578063baf312eb1461004e575b600080fd5b61004c6100493660046101fb565b50565b005b61004c61005c36600461022c565b61009b82828080601f0160208091040260200160405190810160405280939291908181526020018383808284376000920191909152506100a092505050565b505050565b60606100aa61017b565b6100b357600080fd5b6000806144446001600160a01b0316846040516020016100d391906102ee565b60408051601f19818403018152908290526100ed91610301565b600060405180830381855afa9150503d8060008114610128576040519150601f19603f3d011682016040523d82523d6000602084013e61012d565b606091505b50915091508161015f57614444816040516375fff46760e01b815260040161015692919061031d565b60405180910390fd5b808060200190518101906101739190610357565b949350505050565b6040516000908190819063420100009082818181855afa9150503d80600081146101c1576040519150601f19603f3d011682016040523d82523d6000602084013e6101c6565b606091505b5091509150816101f1576342010000816040516375fff46760e01b815260040161015692919061031d565b6020015192915050565b60006020828403121561020d57600080fd5b813567ffffffffffffffff8116811461022557600080fd5b9392505050565b6000806020838503121561023f57600080fd5b823567ffffffffffffffff8082111561025757600080fd5b818501915085601f83011261026b57600080fd5b81358181111561027a57600080fd5b86602082850101111561028c57600080fd5b60209290920196919550909350505050565b60005b838110156102b95781810151838201526020016102a1565b50506000910152565b600081518084526102da81602086016020860161029e565b601f01601f19169290920160200192915050565b60208152600061022560208301846102c2565b6000825161031381846020870161029e565b9190910192915050565b6001600160a01b0383168152604060208201819052600090610173908301846102c2565b634e487b7160e01b600052604160045260246000fd5b60006020828403121561036957600080fd5b815167ffffffffffffffff8082111561038157600080fd5b818401915084601f83011261039557600080fd5b8151818111156103a7576103a7610341565b604051601f8201601f19908116603f011681019083821181831017156103cf576103cf610341565b816040528281528760208487010111156103e857600080fd5b6103f983602083016020880161029e565b97965050505050505056fea164736f6c6343000813000a"
  }
}